:04000000D9EF03F041
:100600000000946A010E8B6E000E016E000E026EE9
:10061000000E036E000E046E010E0126000E022273
:100620000322042204BE22EF03F004500DE1A00EC9
:10063000015C860E0258010E0358D8A022EF03F089
:1006400024EF03F00CEF03F08B6A020E8B6E000EAA
:10065000016E000E026E000E036E000E046E010E9F
:100660000126000E02220322042204BE45EF03F0FD
:1006700004500DE1A00E015C860E0258010E0358D5
:10068000D8A045EF03F047EF03F02FEF03F08B6A9C
:10069000040E8B6E000E016E000E026E000E036ED5
:1006A000000E046E010E0126000E02220322042217
:1006B00004BE68EF03F004500DE1A00E015C860E4D
:1006C0000258010E0358D8A068EF03F06AEF03F058
:1006D00052EF03F08B6A926A010E896E000E016E72
:1006E000000E026E000E036E000E046E010E012657
:1006F000000E02220322042204BE8CEF03F00450F9
:100700000DE1A00E015C860E0258010E0358D8A020
:100710008CEF03F08EEF03F076EF03F0896A020EA0
:10072000896E000E016E000E026E000E036E000E4A
:10073000046E010E0126000E02220322042204BED2
:10074000AFEF03F004500DE1A00E015C860E0258DD
:10075000010E0358D8A0AFEF03F0B1EF03F099EF0B
:1007600003F0896A040E896E000E016E000E026E9F
:10077000000E036E000E046E010E0126000E022212
:100780000322042204BED2EF03F004500DE1A00EB8
:10079000015C860E0258010E0358D8A0D2EF03F078
:1007A000D4EF03F0BCEF03F0896A01EF03F000EF30
:0807B00000F0000101EF03F06D
:00000001FF
